{
  "contractName": "Strategy",
  "abi": [
    {
      "inputs": [
        {
          "internalType": "address",
          "name": "_vault",
          "type": "address"
        },
        {
          "internalType": "address",
          "name": "_protocol",
          "type": "address"
        },
        {
          "internalType": "address",
          "name": "_lpToken",
          "type": "address"
        },
        {
          "internalType": "address",
          "name": "_uniswapRouter",
          "type": "address"
        },
        {
          "internalType": "address",
          "name": "_weth",
          "type": "address"
        }
      ],
      "stateMutability": "nonpayable",
      "type": "constructor"
    },
    {
      "anonymous": false,
      "inputs": [
        {
          "indexed": false,
          "internalType": "uint256",
          "name": "profit",
          "type": "uint256"
        },
        {
          "indexed": false,
          "internalType": "uint256",
          "name": "loss",
          "type": "uint256"
        },
        {
          "indexed": false,
          "internalType": "uint256",
          "name": "debtPayment",
          "type": "uint256"
        },
        {
          "indexed": false,
          "internalType": "uint256",
          "name": "debtOutstanding",
          "type": "uint256"
        }
      ],
      "name": "Harvested",
      "type": "event"
    },
    {
      "anonymous": false,
      "inputs": [
        {
          "indexed": false,
          "internalType": "uint256",
          "name": "debtThreshold",
          "type": "uint256"
        }
      ],
      "name": "UpdatedDebtThreshold",
      "type": "event"
    },
    {
      "anonymous": false,
      "inputs": [
        {
          "indexed": false,
          "internalType": "address",
          "name": "newKeeper",
          "type": "address"
        }
      ],
      "name": "UpdatedKeeper",
      "type": "event"
    },
    {
      "anonymous": false,
      "inputs": [
        {
          "indexed": false,
          "internalType": "uint256",
          "name": "profitFactor",
          "type": "uint256"
        }
      ],
      "name": "UpdatedProfitFactor",
      "type": "event"
    },
    {
      "anonymous": false,
      "inputs": [
        {
          "indexed": false,
          "internalType": "uint256",
          "name": "delay",
          "type": "uint256"
        }
      ],
      "name": "UpdatedReportDelay",
      "type": "event"
    },
    {
      "anonymous": false,
      "inputs": [
        {
          "indexed": false,
          "internalType": "address",
          "name": "rewards",
          "type": "address"
        }
      ],
      "name": "UpdatedRewards",
      "type": "event"
    },
    {
      "anonymous": false,
      "inputs": [
        {
          "indexed": false,
          "internalType": "address",
          "name": "newStrategist",
          "type": "address"
        }
      ],
      "name": "UpdatedStrategist",
      "type": "event"
    },
    {
      "inputs": [],
      "name": "apiVersion",
      "outputs": [
        {
          "internalType": "string",
          "name": "",
          "type": "string"
        }
      ],
      "stateMutability": "pure",
      "type": "function"
    },
    {
      "inputs": [],
      "name": "debtThreshold",
      "outputs": [
        {
          "internalType": "uint256",
          "name": "",
          "type": "uint256"
        }
      ],
      "stateMutability": "view",
      "type": "function"
    },
    {
      "inputs": [],
      "name": "delegatedAssets",
      "outputs": [
        {
          "internalType": "uint256",
          "name": "",
          "type": "uint256"
        }
      ],
      "stateMutability": "view",
      "type": "function"
    },
    {
      "inputs": [],
      "name": "emergencyExit",
      "outputs": [
        {
          "internalType": "bool",
          "name": "",
          "type": "bool"
        }
      ],
      "stateMutability": "view",
      "type": "function"
    },
    {
      "inputs": [],
      "name": "harvest",
      "outputs": [],
      "stateMutability": "nonpayable",
      "type": "function"
    },
    {
      "inputs": [
        {
          "internalType": "uint256",
          "name": "callCost",
          "type": "uint256"
        }
      ],
      "name": "harvestTrigger",
      "outputs": [
        {
          "internalType": "bool",
          "name": "",
          "type": "bool"
        }
      ],
      "stateMutability": "view",
      "type": "function"
    },
    {
      "inputs": [],
      "name": "isActive",
      "outputs": [
        {
          "internalType": "bool",
          "name": "",
          "type": "bool"
        }
      ],
      "stateMutability": "view",
      "type": "function"
    },
    {
      "inputs": [],
      "name": "keeper",
      "outputs": [
        {
          "internalType": "address",
          "name": "",
          "type": "address"
        }
      ],
      "stateMutability": "view",
      "type": "function"
    },
    {
      "inputs": [],
      "name": "lpToken",
      "outputs": [
        {
          "internalType": "contract IERC20",
          "name": "",
          "type": "address"
        }
      ],
      "stateMutability": "view",
      "type": "function"
    },
    {
      "inputs": [
        {
          "internalType": "address",
          "name": "_newStrategy",
          "type": "address"
        }
      ],
      "name": "migrate",
      "outputs": [],
      "stateMutability": "nonpayable",
      "type": "function"
    },
    {
      "inputs": [],
      "name": "minReportDelay",
      "outputs": [
        {
          "internalType": "uint256",
          "name": "",
          "type": "uint256"
        }
      ],
      "stateMutability": "view",
      "type": "function"
    },
    {
      "inputs": [],
      "name": "profitFactor",
      "outputs": [
        {
          "internalType": "uint256",
          "name": "",
          "type": "uint256"
        }
      ],
      "stateMutability": "view",
      "type": "function"
    },
    {
      "inputs": [],
      "name": "rewards",
      "outputs": [
        {
          "internalType": "address",
          "name": "",
          "type": "address"
        }
      ],
      "stateMutability": "view",
      "type": "function"
    },
    {
      "inputs": [],
      "name": "sampleProtocol",
      "outputs": [
        {
          "internalType": "contract ISampleProtocol",
          "name": "",
          "type": "address"
        }
      ],
      "stateMutability": "view",
      "type": "function"
    },
    {
      "inputs": [
        {
          "internalType": "uint256",
          "name": "_debtThreshold",
          "type": "uint256"
        }
      ],
      "name": "setDebtThreshold",
      "outputs": [],
      "stateMutability": "nonpayable",
      "type": "function"
    },
    {
      "inputs": [],
      "name": "setEmergencyExit",
      "outputs": [],
      "stateMutability": "nonpayable",
      "type": "function"
    },
    {
      "inputs": [
        {
          "internalType": "address",
          "name": "_keeper",
          "type": "address"
        }
      ],
      "name": "setKeeper",
      "outputs": [],
      "stateMutability": "nonpayable",
      "type": "function"
    },
    {
      "inputs": [
        {
          "internalType": "uint256",
          "name": "_delay",
          "type": "uint256"
        }
      ],
      "name": "setMinReportDelay",
      "outputs": [],
      "stateMutability": "nonpayable",
      "type": "function"
    },
    {
      "inputs": [
        {
          "internalType": "uint256",
          "name": "_profitFactor",
          "type": "uint256"
        }
      ],
      "name": "setProfitFactor",
      "outputs": [],
      "stateMutability": "nonpayable",
      "type": "function"
    },
    {
      "inputs": [
        {
          "internalType": "address",
          "name": "_rewards",
          "type": "address"
        }
      ],
      "name": "setRewards",
      "outputs": [],
      "stateMutability": "nonpayable",
      "type": "function"
    },
    {
      "inputs": [
        {
          "internalType": "address",
          "name": "_strategist",
          "type": "address"
        }
      ],
      "name": "setStrategist",
      "outputs": [],
      "stateMutability": "nonpayable",
      "type": "function"
    },
    {
      "inputs": [],
      "name": "strategist",
      "outputs": [
        {
          "internalType": "address",
          "name": "",
          "type": "address"
        }
      ],
      "stateMutability": "view",
      "type": "function"
    },
    {
      "inputs": [
        {
          "internalType": "address",
          "name": "_token",
          "type": "address"
        }
      ],
      "name": "sweep",
      "outputs": [],
      "stateMutability": "nonpayable",
      "type": "function"
    },
    {
      "inputs": [],
      "name": "tend",
      "outputs": [],
      "stateMutability": "nonpayable",
      "type": "function"
    },
    {
      "inputs": [
        {
          "internalType": "uint256",
          "name": "callCost",
          "type": "uint256"
        }
      ],
      "name": "tendTrigger",
      "outputs": [
        {
          "internalType": "bool",
          "name": "",
          "type": "bool"
        }
      ],
      "stateMutability": "view",
      "type": "function"
    },
    {
      "inputs": [],
      "name": "uniswapRouter",
      "outputs": [
        {
          "internalType": "contract IUniswapRouter",
          "name": "",
          "type": "address"
        }
      ],
      "stateMutability": "view",
      "type": "function"
    },
    {
      "inputs": [],
      "name": "vault",
      "outputs": [
        {
          "internalType": "contract VaultAPI",
          "name": "",
          "type": "address"
        }
      ],
      "stateMutability": "view",
      "type": "function"
    },
    {
      "inputs": [],
      "name": "want",
      "outputs": [
        {
          "internalType": "contract IERC20",
          "name": "",
          "type": "address"
        }
      ],
      "stateMutability": "view",
      "type": "function"
    },
    {
      "inputs": [],
      "name": "weth",
      "outputs": [
        {
          "internalType": "address",
          "name": "",
          "type": "address"
        }
      ],
      "stateMutability": "view",
      "type": "function"
    },
    {
      "inputs": [
        {
          "internalType": "uint256",
          "name": "_amountNeeded",
          "type": "uint256"
        }
      ],
      "name": "withdraw",
      "outputs": [
        {
          "internalType": "uint256",
          "name": "_loss",
          "type": "uint256"
        }
      ],
      "stateMutability": "nonpayable",
      "type": "function"
    },
    {
      "inputs": [],
      "name": "name",
      "outputs": [
        {
          "internalType": "string",
          "name": "",
          "type": "string"
        }
      ],
      "stateMutability": "view",
      "type": "function"
    },
    {
      "inputs": [],
      "name": "estimatedTotalAssets",
      "outputs": [
        {
          "internalType": "uint256",
          "name": "",
          "type": "uint256"
        }
      ],
      "stateMutability": "view",
      "type": "function"
    },
    {
      "inputs": [],
      "name": "balanceOfWant",
      "outputs": [
        {
          "internalType": "uint256",
          "name": "",
          "type": "uint256"
        }
      ],
      "stateMutability": "view",
      "type": "function"
    },
    {
      "inputs": [
        {
          "internalType": "uint256",
          "name": "_amtInWei",
          "type": "uint256"
        }
      ],
      "name": "ethToWant",
      "outputs": [
        {
          "internalType": "uint256",
          "name": "",
          "type": "uint256"
        }
      ],
      "stateMutability": "view",
      "type": "function"
    }
  ],
  "bytecode": "0x608060405262015180600555606460065560006007553480156200002257600080fd5b5060405162004fd438038062004fd48339818101604052810190620000489190620009a3565b84806000806101000a81548173ffffffffffffffffffffffffffffffffffffffff021916908373ffffffffffffffffffffffffffffffffffffffff16021790555060008054906101000a900473ffffffffffffffffffffffffffffffffffffffff1673ffffffffffffffffffffffffffffffffffffffff1663fc0c546a6040518163ffffffff1660e01b815260040160206040518083038186803b158015620000f057600080fd5b505afa15801562000105573d6000803e3d6000fd5b505050506040513d601f19601f820116820180604052508101906200012b919062000977565b600460006101000a81548173ffffffffffffffffffffffffffffffffffffffff021916908373ffffffffffffffffffffffffffffffffffffffff160217905550600460009054906101000a900473ffffffffffffffffffffffffffffffffffffffff1673ffffffffffffffffffffffffffffffffffffffff1663095ea7b3827fffffffffffffffffffffffffffffffffffffffffffffffffffffffffffffffff6040518363ffffffff1660e01b8152600401620001ea92919062000cd7565b602060405180830381600087803b1580156200020557600080fd5b505af11580156200021a573d6000803e3d6000fd5b505050506040513d601f19601f8201168201806040525081019062000240919062000a25565b5033600160006101000a81548173ffffffffffffffffffffffffffffffffffffffff021916908373ffffffffffffffffffffffffffffffffffffffff16021790555033600260006101000a81548173ffffffffffffffffffffffffffffffffffffffff021916908373ffffffffffffffffffffffffffffffffffffffff16021790555033600360006101000a81548173ffffffffffffffffffffffffffffffffffffffff021916908373ffffffffffffffffffffffffffffffffffffffff1602179055505083600860016101000a81548173ffffffffffffffffffffffffffffffffffffffff021916908373ffffffffffffffffffffffffffffffffffffffff16021790555082600960006101000a81548173ffffffffffffffffffffffffffffffffffffffff021916908373ffffffffffffffffffffffffffffffffffffffff16021790555081600a60006101000a81548173ffffffffffffffffffffffffffffffffffffffff021916908373ffffffffffffffffffffffffffffffffffffffff16021790555080600b60006101000a81548173ffffffffffffffffffffffffffffffffffffffff021916908373ffffffffffffffffffffffffffffffffffffffff1602179055506200049f600860019054906101000a900473ffffffffffffffffffffffffffffffffffffffff167fffffffffffffffffffffffffffffffffffffffffffffffffffffffffffffffff600460009054906101000a900473ffffffffffffffffffffffffffffffffffffffff1673ffffffffffffffffffffffffffffffffffffffff166200051e60201b6200255b179092919060201c565b62000513307fffffffffffffffffffffffffffffffffffffffffffffffffffffffffffffffff600960009054906101000a900473ffffffffffffffffffffffffffffffffffffffff1673ffffffffffffffffffffffffffffffffffffffff166200051e60201b6200255b179092919060201c565b505050505062000ec1565b6000811480620005be575060008373ffffffffffffffffffffffffffffffffffffffff1663dd62ed3e30856040518363ffffffff1660e01b81526004016200056892919062000caa565b60206040518083038186803b1580156200058157600080fd5b505afa15801562000596573d6000803e3d6000fd5b505050506040513d601f19601f82011682018060405250810190620005bc919062000a51565b145b62000600576040517f08c379a0000000000000000000000000000000000000000000000000000000008152600401620005f79062000d8e565b60405180910390fd5b6200068b8363095ea7b360e01b84846040516024016200062292919062000cd7565b604051602081830303815290604052907bffffffffffffffffffffffffffffffffffffffffffffffffffffffff19166020820180517bffffffffffffffffffffffffffffffffffffffffffffffffffffffff83818316178352505050506200069060201b60201c565b505050565b6060620006f9826040518060400160405280602081526020017f5361666545524332303a206c6f772d6c6576656c2063616c6c206661696c65648152508573ffffffffffffffffffffffffffffffffffffffff166200076460201b620026b9179092919060201c565b90506000815111156200075f57808060200190518101906200071c919062000a25565b6200075e576040517f08c379a0000000000000000000000000000000000000000000000000000000008152600401620007559062000d6c565b60405180910390fd5b5b505050565b60606200077b84846000856200078460201b60201c565b90509392505050565b606082471015620007cc576040517f08c379a0000000000000000000000000000000000000000000000000000000008152600401620007c39062000d28565b60405180910390fd5b620007dd85620008b360201b60201c565b6200081f576040517f08c379a0000000000000000000000000000000000000000000000000000000008152600401620008169062000d4a565b60405180910390fd5b600060608673ffffffffffffffffffffffffffffffffffffffff1685876040516200084b919062000c91565b60006040518083038185875af1925050503d80600081146200088a576040519150601f19603f3d011682016040523d82523d6000602084013e6200088f565b606091505b5091509150620008a7828286620008c660201b60201c565b92505050949350505050565b600080823b905060008111915050919050565b60608315620008d8578290506200092b565b600083511115620008ec5782518084602001fd5b816040517f08c379a000000000000000000000000000000000000000000000000000000000815260040162000922919062000d04565b60405180910390fd5b9392505050565b600081519050620009438162000e73565b92915050565b6000815190506200095a8162000e8d565b92915050565b600081519050620009718162000ea7565b92915050565b6000602082840312156200098a57600080fd5b60006200099a8482850162000932565b91505092915050565b600080600080600060a08688031215620009bc57600080fd5b6000620009cc8882890162000932565b9550506020620009df8882890162000932565b9450506040620009f28882890162000932565b935050606062000a058882890162000932565b925050608062000a188882890162000932565b9150509295509295909350565b60006020828403121562000a3857600080fd5b600062000a488482850162000949565b91505092915050565b60006020828403121562000a6457600080fd5b600062000a748482850162000960565b91505092915050565b62000a888162000de2565b82525050565b600062000a9b8262000db0565b62000aa7818562000dc6565b935062000ab981856020860162000e2c565b80840191505092915050565b600062000ad28262000dbb565b62000ade818562000dd1565b935062000af081856020860162000e2c565b62000afb8162000e62565b840191505092915050565b600062000b1560268362000dd1565b91507f416464726573733a20696e73756666696369656e742062616c616e636520666f60008301527f722063616c6c00000000000000000000000000000000000000000000000000006020830152604082019050919050565b600062000b7d601d8362000dd1565b91507f416464726573733a2063616c6c20746f206e6f6e2d636f6e74726163740000006000830152602082019050919050565b600062000bbf602a8362000dd1565b91507f5361666545524332303a204552433230206f7065726174696f6e20646964206e60008301527f6f742073756363656564000000000000000000000000000000000000000000006020830152604082019050919050565b600062000c2760368362000dd1565b91507f5361666545524332303a20617070726f76652066726f6d206e6f6e2d7a65726f60008301527f20746f206e6f6e2d7a65726f20616c6c6f77616e6365000000000000000000006020830152604082019050919050565b62000c8b8162000e22565b82525050565b600062000c9f828462000a8e565b915081905092915050565b600060408201905062000cc1600083018562000a7d565b62000cd0602083018462000a7d565b9392505050565b600060408201905062000cee600083018562000a7d565b62000cfd602083018462000c80565b9392505050565b6000602082019050818103600083015262000d20818462000ac5565b905092915050565b6000602082019050818103600083015262000d438162000b06565b9050919050565b6000602082019050818103600083015262000d658162000b6e565b9050919050565b6000602082019050818103600083015262000d878162000bb0565b9050919050565b6000602082019050818103600083015262000da98162000c18565b9050919050565b600081519050919050565b600081519050919050565b600081905092915050565b600082825260208201905092915050565b600062000def8262000e02565b9050919050565b60008115159050919050565b600073ffffffffffffffffffffffffffffffffffffffff82169050919050565b6000819050919050565b60005b8381101562000e4c57808201518184015260208101905062000e2f565b8381111562000e5c576000848401525b50505050565b6000601f19601f8301169050919050565b62000e7e8162000de2565b811462000e8a57600080fd5b50565b62000e988162000df6565b811462000ea457600080fd5b50565b62000eb28162000e22565b811462000ebe57600080fd5b50565b6141038062000ed16000396000f3fe608060405234801561001057600080fd5b50600436106102065760003560e01c8063748747e61161011a578063aced1661116100ad578063ec38a8621161007c578063ec38a86214610571578063ed882c2b1461058d578063efbb5cb0146105bd578063fbfa77cf146105db578063fcf2d0ad146105f957610206565b8063aced1661146104fd578063c1a3d44c1461051b578063c7b9d53014610539578063ce5494bb1461055557610206565b80638e6350e2116100e95780638e6350e21461048757806391397ab4146104a557806395e80c50146104c15780639ec5a894146104df57610206565b8063748747e6146103ff578063780022a01461041b5780637d5cd9a11461044b5780638cdfe1661461046957610206565b80632e1a7d4d1161019d5780634641257d1161016c5780634641257d1461036b5780635641ec03146103755780635fcbd28514610393578063650d1880146103b1578063735de9f7146103e157610206565b80632e1a7d4d146102f757806339a172a8146103275780633fc8cef314610343578063440368a31461036157610206565b80631f1fcd51116101d95780631f1fcd511461027f5780631fe4a6861461029d57806322f3e2d4146102bb57806325829410146102d957610206565b806301681a621461020b57806306fdde03146102275780630f969b87146102455780631d12f28b14610261575b600080fd5b61022560048036038101906102209190613390565b610603565b005b61022f610961565b60405161023c9190613ba4565b60405180910390f35b61025f600480360381019061025a919061349f565b61099e565b005b610269610aac565b6040516102769190613d86565b60405180910390f35b610287610ab2565b6040516102949190613b38565b60405180910390f35b6102a5610ad8565b6040516102b29190613a87565b60405180910390f35b6102c3610afe565b6040516102d09190613b1d565b60405180910390f35b6102e1610bc7565b6040516102ee9190613ba4565b60405180910390f35b610311600480360381019061030c919061349f565b610c04565b60405161031e9190613d86565b60405180910390f35b610341600480360381019061033c919061349f565b610d5e565b005b61034b610e6c565b6040516103589190613a87565b60405180910390f35b610369610e92565b005b61037361105f565b005b61037d6113ae565b60405161038a9190613b1d565b60405180910390f35b61039b6113c1565b6040516103a89190613b38565b60405180910390f35b6103cb60048036038101906103c6919061349f565b6113e7565b6040516103d89190613b1d565b60405180910390f35b6103e96113ee565b6040516103f69190613b6e565b60405180910390f35b61041960048036038101906104149190613390565b611414565b005b6104356004803603810190610430919061349f565b61155c565b6040516104429190613d86565b60405180910390f35b610453611764565b6040516104609190613b53565b60405180910390f35b61047161178a565b60405161047e9190613d86565b60405180910390f35b61048f611790565b60405161049c9190613d86565b60405180910390f35b6104bf60048036038101906104ba919061349f565b611795565b005b6104c96118a3565b6040516104d69190613d86565b60405180910390f35b6104e76118a9565b6040516104f49190613a87565b60405180910390f35b6105056118cf565b6040516105129190613a87565b60405180910390f35b6105236118f5565b6040516105309190613d86565b60405180910390f35b610553600480360381019061054e9190613390565b6119a7565b005b61056f600480360381019061056a9190613390565b611aef565b005b61058b60048036038101906105869190613390565b611dbf565b005b6105a760048036038101906105a2919061349f565b611eca565b6040516105b49190613b1d565b60405180910390f35b6105c56121b0565b6040516105d29190613d86565b60405180910390f35b6105e36123cd565b6040516105f09190613b89565b60405180910390f35b6106016123f1565b005b61060b6126d1565b73ffffffffffffffffffffffffffffffffffffffff163373ffffffffffffffffffffffffffffffffffffffff1614610678576040517f08c379a000000000000000000000000000000000000000000000000000000000815260040161066f90613d06565b60405180910390fd5b600460009054906101000a900473ffffffffffffffffffffffffffffffffffffffff1673ffffffffffffffffffffffffffffffffffffffff168173ffffffffffffffffffffffffffffffffffffffff161415610709576040517f08c379a000000000000000000000000000000000000000000000000000000000815260040161070090613be6565b60405180910390fd5b60008054906101000a900473ffffffffffffffffffffffffffffffffffffffff1673ffffffffffffffffffffffffffffffffffffffff168173ffffffffffffffffffffffffffffffffffffffff161415610798576040517f08c379a000000000000000000000000000000000000000000000000000000000815260040161078f90613cc6565b60405180910390fd5b60606107a2612777565b905060005b815181101561083f578181815181106107bc57fe5b602002602001015173ffffffffffffffffffffffffffffffffffffffff168373ffffffffffffffffffffffffffffffffffffffff161415610832576040517f08c379a000000000000000000000000000000000000000000000000000000000815260040161082990613d46565b60405180910390fd5b80806001019150506107a7565b508173ffffffffffffffffffffffffffffffffffffffff1663a9059cbb6108646126d1565b8473ffffffffffffffffffffffffffffffffffffffff166370a08231306040518263ffffffff1660e01b815260040161089d9190613a87565b60206040518083038186803b1580156108b557600080fd5b505afa1580156108c9573d6000803e3d6000fd5b505050506040513d601f19601f820116820180604052508101906108ed91906134c8565b6040518363ffffffff1660e01b815260040161090a929190613af4565b602060405180830381600087803b15801561092457600080fd5b505af1158015610938573d6000803e3d6000fd5b505050506040513d601f19601f8201168201806040525081019061095c9190613423565b505050565b60606040518060400160405280601b81526020017f537472617465677953616d706c6550726f746f636f6c546f6b656e0000000000815250905090565b600160009054906101000a900473ffffffffffffffffffffffffffffffffffffffff1673ffffffffffffffffffffffffffffffffffffffff163373ffffffffffffffffffffffffffffffffffffffff161480610a2c57506109fd6126d1565b73ffffffffffffffffffffffffffffffffffffffff163373ffffffffffffffffffffffffffffffffffffffff16145b610a6b576040517f08c379a0000000000000000000000000000000000000000000000000000000008152600401610a6290613d06565b60405180910390fd5b806007819055507fa68ba126373d04c004c5748c300c9fca12bd444b3d4332e261f3bd2bac4a860081604051610aa19190613d86565b60405180910390a150565b60075481565b600460009054906101000a900473ffffffffffffffffffffffffffffffffffffffff1681565b600160009054906101000a900473ffffffffffffffffffffffffffffffffffffffff1681565b60008060008054906101000a900473ffffffffffffffffffffffffffffffffffffffff1673ffffffffffffffffffffffffffffffffffffffff166339ebf823306040518263ffffffff1660e01b8152600401610b5a9190613a87565b6101006040518083038186803b158015610b7357600080fd5b505afa158015610b87573d6000803e3d6000fd5b505050506040513d601f19601f82011682018060405250810190610bab9190613475565b604001511180610bc257506000610bc06121b0565b115b905090565b60606040518060400160405280600581526020017f302e322e32000000000000000000000000000000000000000000000000000000815250905090565b60008060009054906101000a900473ffffffffffffffffffffffffffffffffffffffff1673ffffffffffffffffffffffffffffffffffffffff163373ffffffffffffffffffffffffffffffffffffffff1614610c95576040517f08c379a0000000000000000000000000000000000000000000000000000000008152600401610c8c90613ca6565b60405180910390fd5b6000610ca08361277c565b8093508192505050600460009054906101000a900473ffffffffffffffffffffffffffffffffffffffff1673ffffffffffffffffffffffffffffffffffffffff1663a9059cbb33836040518363ffffffff1660e01b8152600401610d05929190613aa2565b602060405180830381600087803b158015610d1f57600080fd5b505af1158015610d33573d6000803e3d6000fd5b505050506040513d601f19601f82011682018060405250810190610d579190613423565b5050919050565b600160009054906101000a900473ffffffffffffffffffffffffffffffffffffffff1673ffffffffffffffffffffffffffffffffffffffff163373ffffffffffffffffffffffffffffffffffffffff161480610dec5750610dbd6126d1565b73ffffffffffffffffffffffffffffffffffffffff163373ffffffffffffffffffffffffffffffffffffffff16145b610e2b576040517f08c379a0000000000000000000000000000000000000000000000000000000008152600401610e2290613d06565b60405180910390fd5b806005819055507f4aaf232568bff365c53cad69bdb6e83014e79df80216ceba8ee01769723dfd6881604051610e619190613d86565b60405180910390a150565b600b60009054906101000a900473ffffffffffffffffffffffffffffffffffffffff1681565b600360009054906101000a900473ffffffffffffffffffffffffffffffffffffffff1673ffffffffffffffffffffffffffffffffffffffff163373ffffffffffffffffffffffffffffffffffffffff161480610f3b5750600160009054906101000a900473ffffffffffffffffffffffffffffffffffffffff1673ffffffffffffffffffffffffffffffffffffffff163373ffffffffffffffffffffffffffffffffffffffff16145b80610f785750610f496126d1565b73ffffffffffffffffffffffffffffffffffffffff163373ffffffffffffffffffffffffffffffffffffffff16145b610fb7576040517f08c379a0000000000000000000000000000000000000000000000000000000008152600401610fae90613d06565b60405180910390fd5b61105d60008054906101000a900473ffffffffffffffffffffffffffffffffffffffff1673ffffffffffffffffffffffffffffffffffffffff1663bf3759b56040518163ffffffff1660e01b815260040160206040518083038186803b15801561102057600080fd5b505afa158015611034573d6000803e3d6000fd5b505050506040513d601f19601f8201168201806040525081019061105891906134c8565b6127d0565b565b600360009054906101000a900473ffffffffffffffffffffffffffffffffffffffff1673ffffffffffffffffffffffffffffffffffffffff163373ffffffffffffffffffffffffffffffffffffffff1614806111085750600160009054906101000a900473ffffffffffffffffffffffffffffffffffffffff1673ffffffffffffffffffffffffffffffffffffffff163373ffffffffffffffffffffffffffffffffffffffff16145b8061114557506111166126d1565b73ffffffffffffffffffffffffffffffffffffffff163373ffffffffffffffffffffffffffffffffffffffff16145b611184576040517f08c379a000000000000000000000000000000000000000000000000000000000815260040161117b90613d06565b60405180910390fd5b60008060008060009054906101000a900473ffffffffffffffffffffffffffffffffffffffff1673ffffffffffffffffffffffffffffffffffffffff1663bf3759b56040518163ffffffff1660e01b815260040160206040518083038186803b1580156111f057600080fd5b505afa158015611204573d6000803e3d6000fd5b505050506040513d601f19601f8201168201806040525081019061122891906134c8565b90506000600860009054906101000a900460ff161561129357600061124b6121b0565b905061126483821161125d578361125f565b815b61277c565b80955081935050508282111561128d57611287838361288e90919063ffffffff16565b94508291505b506112a9565b61129c826128de565b8093508195508296505050505b60008054906101000a900473ffffffffffffffffffffffffffffffffffffffff1673ffffffffffffffffffffffffffffffffffffffff1663a1d9bafc8585846040518463ffffffff1660e01b815260040161130693929190613dd1565b602060405180830381600087803b15801561132057600080fd5b505af1158015611334573d6000803e3d6000fd5b505050506040513d601f19601f8201168201806040525081019061135891906134c8565b9150611362612c85565b61136b826127d0565b7f4c0f499ffe6befa0ca7c826b0916cf87bea98de658013e76938489368d60d509848483856040516113a09493929190613e08565b60405180910390a150505050565b600860009054906101000a900460ff1681565b600960009054906101000a900473ffffffffffffffffffffffffffffffffffffffff1681565b6000919050565b600a60009054906101000a900473ffffffffffffffffffffffffffffffffffffffff1681565b600160009054906101000a900473ffffffffffffffffffffffffffffffffffffffff1673ffffffffffffffffffffffffffffffffffffffff163373ffffffffffffffffffffffffffffffffffffffff1614806114a257506114736126d1565b73ffffffffffffffffffffffffffffffffffffffff163373ffffffffffffffffffffffffffffffffffffffff16145b6114e1576040517f08c379a00000000000000000000000000000000000000000000000000000000081526004016114d890613d06565b60405180910390fd5b80600360006101000a81548173ffffffffffffffffffffffffffffffffffffffff021916908373ffffffffffffffffffffffffffffffffffffffff1602179055507f2f202ddb4a2e345f6323ed90f8fc8559d770a7abbbeee84dde8aca3351fe7154816040516115519190613a87565b60405180910390a150565b60008082141561156f576000905061175f565b6060600267ffffffffffffffff8111801561158957600080fd5b506040519080825280602002602001820160405280156115b85781602001602082028036833780820191505090505b509050600b60009054906101000a900473ffffffffffffffffffffffffffffffffffffffff16816000815181106115eb57fe5b602002602001019073ffffffffffffffffffffffffffffffffffffffff16908173ffffffffffffffffffffffffffffffffffffffff1681525050600460009054906101000a900473ffffffffffffffffffffffffffffffffffffffff168160018151811061165557fe5b602002602001019073ffffffffffffffffffffffffffffffffffffffff16908173ffffffffffffffffffffffffffffffffffffffff16815250506060600a60009054906101000a900473ffffffffffffffffffffffffffffffffffffffff1673ffffffffffffffffffffffffffffffffffffffff1663d06ca61f85846040518363ffffffff1660e01b81526004016116ee929190613da1565b60006040518083038186803b15801561170657600080fd5b505afa15801561171a573d6000803e3d6000fd5b505050506040513d6000823e3d601f19601f8201168201806040525081019061174391906133e2565b90508060018151811061175257fe5b6020026020010151925050505b919050565b600860019054906101000a900473ffffffffffffffffffffffffffffffffffffffff1681565b60065481565b600090565b600160009054906101000a900473ffffffffffffffffffffffffffffffffffffffff1673ffffffffffffffffffffffffffffffffffffffff163373ffffffffffffffffffffffffffffffffffffffff16148061182357506117f46126d1565b73ffffffffffffffffffffffffffffffffffffffff163373ffffffffffffffffffffffffffffffffffffffff16145b611862576040517f08c379a000000000000000000000000000000000000000000000000000000000815260040161185990613d06565b60405180910390fd5b806006819055507fd94596337df4c2f0f44d30a7fc5db1c7bb60d9aca4185ed77c6fd96eb45ec298816040516118989190613d86565b60405180910390a150565b60055481565b600260009054906101000a900473ffffffffffffffffffffffffffffffffffffffff1681565b600360009054906101000a900473ffffffffffffffffffffffffffffffffffffffff1681565b6000600460009054906101000a900473ffffffffffffffffffffffffffffffffffffffff1673ffffffffffffffffffffffffffffffffffffffff166370a08231306040518263ffffffff1660e01b81526004016119529190613a87565b60206040518083038186803b15801561196a57600080fd5b505afa15801561197e573d6000803e3d6000fd5b505050506040513d601f19601f820116820180604052508101906119a291906134c8565b905090565b600160009054906101000a900473ffffffffffffffffffffffffffffffffffffffff1673ffffffffffffffffffffffffffffffffffffffff163373ffffffffffffffffffffffffffffffffffffffff161480611a355750611a066126d1565b73ffffffffffffffffffffffffffffffffffffffff163373ffffffffffffffffffffffffffffffffffffffff16145b611a74576040517f08c379a0000000000000000000000000000000000000000000000000000000008152600401611a6b90613d06565b60405180910390fd5b80600160006101000a81548173ffffffffffffffffffffffffffffffffffffffff021916908373ffffffffffffffffffffffffffffffffffffffff1602179055507f352ececae6d7d1e6d26bcf2c549dfd55be1637e9b22dc0cf3b71ddb36097a6b481604051611ae49190613a87565b60405180910390a150565b60008054906101000a900473ffffffffffffffffffffffffffffffffffffffff1673ffffffffffffffffffffffffffffffffffffffff163373ffffffffffffffffffffffffffffffffffffffff161480611b7b5750611b4c6126d1565b73ffffffffffffffffffffffffffffffffffffffff163373ffffffffffffffffffffffffffffffffffffffff16145b611b8457600080fd5b60008054906101000a900473ffffffffffffffffffffffffffffffffffffffff1673ffffffffffffffffffffffffffffffffffffffff168173ffffffffffffffffffffffffffffffffffffffff1663fbfa77cf6040518163ffffffff1660e01b815260040160206040518083038186803b158015611c0157600080fd5b505afa158015611c15573d6000803e3d6000fd5b505050506040513d601f19601f82011682018060405250810190611c39919061344c565b73ffffffffffffffffffffffffffffffffffffffff1614611c5957600080fd5b611c6281612e10565b600460009054906101000a900473ffffffffffffffffffffffffffffffffffffffff1673ffffffffffffffffffffffffffffffffffffffff1663a9059cbb82600460009054906101000a900473ffffffffffffffffffffffffffffffffffffffff1673ffffffffffffffffffffffffffffffffffffffff166370a08231306040518263ffffffff1660e01b8152600401611cfc9190613a87565b60206040518083038186803b158015611d1457600080fd5b505afa158015611d28573d6000803e3d6000fd5b505050506040513d601f19601f82011682018060405250810190611d4c91906134c8565b6040518363ffffffff1660e01b8152600401611d69929190613af4565b602060405180830381600087803b158015611d8357600080fd5b505af1158015611d97573d6000803e3d6000fd5b505050506040513d601f19601f82011682018060405250810190611dbb9190613423565b5050565b600160009054906101000a900473ffffffffffffffffffffffffffffffffffffffff1673ffffffffffffffffffffffffffffffffffffffff163373ffffffffffffffffffffffffffffffffffffffff1614611e4f576040517f08c379a0000000000000000000000000000000000000000000000000000000008152600401611e4690613bc6565b60405180910390fd5b80600260006101000a81548173ffffffffffffffffffffffffffffffffffffffff021916908373ffffffffffffffffffffffffffffffffffffffff1602179055507fafbb66abf8f3b719799940473a4052a3717cdd8e40fb6c8a3faadab316b1a06981604051611ebf9190613a87565b60405180910390a150565b6000611ed4613184565b60008054906101000a900473ffffffffffffffffffffffffffffffffffffffff1673ffffffffffffffffffffffffffffffffffffffff166339ebf823306040518263ffffffff1660e01b8152600401611f2d9190613a87565b6101006040518083038186803b158015611f4657600080fd5b505afa158015611f5a573d6000803e3d6000fd5b505050506040513d601f19601f82011682018060405250810190611f7e9190613475565b9050600081602001511415611f975760009150506121ab565b600554611fb182608001514261288e90919063ffffffff16565b10611fc05760019150506121ab565b60008060009054906101000a900473ffffffffffffffffffffffffffffffffffffffff1673ffffffffffffffffffffffffffffffffffffffff1663bf3759b56040518163ffffffff1660e01b815260040160206040518083038186803b15801561202957600080fd5b505afa15801561203d573d6000803e3d6000fd5b505050506040513d601f19601f8201168201806040525081019061206191906134c8565b90506000811115612077576001925050506121ab565b60006120816121b0565b90508260a0015161209d60075483612e1390919063ffffffff16565b10156120af57600193505050506121ab565b60008360a001518211156120d7576120d48460a001518361288e90919063ffffffff16565b90505b60008060009054906101000a900473ffffffffffffffffffffffffffffffffffffffff1673ffffffffffffffffffffffffffffffffffffffff1663112c1f9b6040518163ffffffff1660e01b815260040160206040518083038186803b15801561214057600080fd5b505afa158015612154573d6000803e3d6000fd5b505050506040513d601f19601f8201168201806040525081019061217891906134c8565b905061218d8282612e1390919063ffffffff16565b6121a288600654612e6890919063ffffffff16565b10955050505050505b919050565b600080600960009054906101000a900473ffffffffffffffffffffffffffffffffffffffff1673ffffffffffffffffffffffffffffffffffffffff166370a08231306040518263ffffffff1660e01b815260040161220e9190613a87565b60206040518083038186803b15801561222657600080fd5b505afa15801561223a573d6000803e3d6000fd5b505050506040513d601f19601f8201168201806040525081019061225e91906134c8565b90506123c7600860019054906101000a900473ffffffffffffffffffffffffffffffffffffffff1673ffffffffffffffffffffffffffffffffffffffff16633b566c0c836040518263ffffffff1660e01b81526004016122be9190613d86565b60206040518083038186803b1580156122d657600080fd5b505afa1580156122ea573d6000803e3d6000fd5b505050506040513d601f19601f8201168201806040525081019061230e91906134c8565b600460009054906101000a900473ffffffffffffffffffffffffffffffffffffffff1673ffffffffffffffffffffffffffffffffffffffff166370a08231306040518263ffffffff1660e01b81526004016123699190613a87565b60206040518083038186803b15801561238157600080fd5b505afa158015612395573d6000803e3d6000fd5b505050506040513d601f19601f820116820180604052508101906123b991906134c8565b612e1390919063ffffffff16565b91505090565b60008054906101000a900473ffffffffffffffffffffffffffffffffffffffff1681565b600160009054906101000a900473ffffffffffffffffffffffffffffffffffffffff1673ffffffffffffffffffffffffffffffffffffffff163373ffffffffffffffffffffffffffffffffffffffff16148061247f57506124506126d1565b73ffffffffffffffffffffffffffffffffffffffff163373ffffffffffffffffffffffffffffffffffffffff16145b6124be576040517f08c379a00000000000000000000000000000000000000000000000000000000081526004016124b590613d06565b60405180910390fd5b6001600860006101000a81548160ff02191690831515021790555060008054906101000a900473ffffffffffffffffffffffffffffffffffffffff1673ffffffffffffffffffffffffffffffffffffffff1663a0e4af9a6040518163ffffffff1660e01b8152600401600060405180830381600087803b15801561254157600080fd5b505af1158015612555573d6000803e3d6000fd5b50505050565b60008114806125f4575060008373ffffffffffffffffffffffffffffffffffffffff1663dd62ed3e30856040518363ffffffff1660e01b81526004016125a2929190613acb565b60206040518083038186803b1580156125ba57600080fd5b505afa1580156125ce573d6000803e3d6000fd5b505050506040513d601f19601f820116820180604052508101906125f291906134c8565b145b612633576040517f08c379a000000000000000000000000000000000000000000000000000000000815260040161262a90613d66565b60405180910390fd5b6126b48363095ea7b360e01b8484604051602401612652929190613af4565b604051602081830303815290604052907bffffffffffffffffffffffffffffffffffffffffffffffffffffffff19166020820180517bffffffffffffffffffffffffffffffffffffffffffffffffffffffff8381831617835250505050612ed8565b505050565b60606126c88484600085612f9f565b90509392505050565b60008060009054906101000a900473ffffffffffffffffffffffffffffffffffffffff1673ffffffffffffffffffffffffffffffffffffffff16635aa6e6756040518163ffffffff1660e01b815260040160206040518083038186803b15801561273a57600080fd5b505afa15801561274e573d6000803e3d6000fd5b505050506040513d601f19601f8201168201806040525081019061277291906133b9565b905090565b606090565b60008060006127896118f5565b9050808411156127b0578092506127a9818561288e90919063ffffffff16565b91506127ca565b6127c3848261288e90919063ffffffff16565b9250600091505b50915091565b60006127da6118f5565b90508181111561288a5760006127f9838361288e90919063ffffffff16565b9050600860019054906101000a900473ffffffffffffffffffffffffffffffffffffffff1673ffffffffffffffffffffffffffffffffffffffff1663eb521a4c826040518263ffffffff1660e01b81526004016128569190613d86565b600060405180830381600087803b15801561287057600080fd5b505af1158015612884573d6000803e3d6000fd5b50505050505b5050565b6000828211156128d3576040517f08c379a00000000000000000000000000000000000000000000000000000000081526004016128ca90613c26565b60405180910390fd5b818303905092915050565b60008060008092506000915060008060009054906101000a900473ffffffffffffffffffffffffffffffffffffffff1673ffffffffffffffffffffffffffffffffffffffff166339ebf823306040518263ffffffff1660e01b81526004016129469190613a87565b6101006040518083038186803b15801561295f57600080fd5b505afa158015612973573d6000803e3d6000fd5b505050506040513d601f19601f820116820180604052508101906129979190613475565b60a00151905060006129a76121b0565b905060006129b36118f5565b9050828211156129d7576129d0838361288e90919063ffffffff16565b95506129ed565b6129ea828461288e90919063ffffffff16565b94505b6000612a028789612e1390919063ffffffff16565b905081811115612c1a576000612a21838361288e90919063ffffffff16565b90506000600960009054906101000a900473ffffffffffffffffffffffffffffffffffffffff1673ffffffffffffffffffffffffffffffffffffffff166370a08231306040518263ffffffff1660e01b8152600401612a809190613a87565b60206040518083038186803b158015612a9857600080fd5b505afa158015612aac573d6000803e3d6000fd5b505050506040513d601f19601f82011682018060405250810190612ad091906134c8565b905060006001612afb87612aed8587612e6890919063ffffffff16565b6130b490919063ffffffff16565b019050600860019054906101000a900473ffffffffffffffffffffffffffffffffffffffff1673ffffffffffffffffffffffffffffffffffffffff16639c8f9f23826040518263ffffffff1660e01b8152600401612b599190613d86565b600060405180830381600087803b158015612b7357600080fd5b505af1158015612b87573d6000803e3d6000fd5b505050506000612b956118f5565b90506000612bac878361288e90919063ffffffff16565b90506000612bc3828861288e90919063ffffffff16565b90508c811015612be757612be0818e61288e90919063ffffffff16565b9c50612c13565b612c0c612bfd8e8361288e90919063ffffffff16565b8d612e1390919063ffffffff16565b9b5060009c505b5050505050505b612c226118f5565b915081871115612c355760009450612c7a565b600088118015612c56575081612c54888a612e1390919063ffffffff16565b115b15612c7557612c6e878361288e90919063ffffffff16565b9450612c79565b8794505b5b505050509193909250565b60008060009054906101000a900473ffffffffffffffffffffffffffffffffffffffff1673ffffffffffffffffffffffffffffffffffffffff166370a08231306040518263ffffffff1660e01b8152600401612ce19190613a87565b60206040518083038186803b158015612cf957600080fd5b505afa158015612d0d573d6000803e3d6000fd5b505050506040513d601f19601f82011682018060405250810190612d3191906134c8565b90506000811115612e0d5760008054906101000a900473ffffffffffffffffffffffffffffffffffffffff1673ffffffffffffffffffffffffffffffffffffffff1663a9059cbb600260009054906101000a900473ffffffffffffffffffffffffffffffffffffffff16836040518363ffffffff1660e01b8152600401612db9929190613af4565b602060405180830381600087803b158015612dd357600080fd5b505af1158015612de7573d6000803e3d6000fd5b505050506040513d601f19601f82011682018060405250810190612e0b9190613423565b505b50565b50565b600080828401905083811015612e5e576040517f08c379a0000000000000000000000000000000000000000000000000000000008152600401612e5590613c06565b60405180910390fd5b8091505092915050565b600080831415612e7b5760009050612ed2565b6000828402905082848281612e8c57fe5b0414612ecd576040517f08c379a0000000000000000000000000000000000000000000000000000000008152600401612ec490613c86565b60405180910390fd5b809150505b92915050565b6060612f3a826040518060400160405280602081526020017f5361666545524332303a206c6f772d6c6576656c2063616c6c206661696c65648152508573ffffffffffffffffffffffffffffffffffffffff166126b99092919063ffffffff16565b9050600081511115612f9a5780806020019051810190612f5a9190613423565b612f99576040517f08c379a0000000000000000000000000000000000000000000000000000000008152600401612f9090613d26565b60405180910390fd5b5b505050565b606082471015612fe4576040517f08c379a0000000000000000000000000000000000000000000000000000000008152600401612fdb90613c46565b60405180910390fd5b612fed8561310a565b61302c576040517f08c379a000000000000000000000000000000000000000000000000000000000815260040161302390613ce6565b60405180910390fd5b600060608673ffffffffffffffffffffffffffffffffffffffff1685876040516130569190613a70565b60006040518083038185875af1925050503d8060008114613093576040519150601f19603f3d011682016040523d82523d6000602084013e613098565b606091505b50915091506130a882828661311d565b92505050949350505050565b60008082116130f8576040517f08c379a00000000000000000000000000000000000000000000000000000000081526004016130ef90613c66565b60405180910390fd5b81838161310157fe5b04905092915050565b600080823b905060008111915050919050565b6060831561312d5782905061317d565b6000835111156131405782518084602001fd5b816040517f08c379a00000000000000000000000000000000000000000000000000000000081526004016131749190613ba4565b60405180910390fd5b9392505050565b60405180610100016040528060008152602001600081526020016000815260200160008152602001600081526020016000815260200160008152602001600081525090565b6000813590506131d881614071565b92915050565b6000815190506131ed81614071565b92915050565b600082601f83011261320457600080fd5b815161321761321282613e7a565b613e4d565b9150818183526020840193506020810190508385602084028201111561323c57600080fd5b60005b8381101561326c5781613252888261337b565b84526020840193506020830192505060018101905061323f565b5050505092915050565b60008151905061328581614088565b92915050565b60008151905061329a8161409f565b92915050565b600061010082840312156132b357600080fd5b6132be610100613e4d565b905060006132ce8482850161337b565b60008301525060206132e28482850161337b565b60208301525060406132f68482850161337b565b604083015250606061330a8482850161337b565b606083015250608061331e8482850161337b565b60808301525060a06133328482850161337b565b60a08301525060c06133468482850161337b565b60c08301525060e061335a8482850161337b565b60e08301525092915050565b600081359050613375816140b6565b92915050565b60008151905061338a816140b6565b92915050565b6000602082840312156133a257600080fd5b60006133b0848285016131c9565b91505092915050565b6000602082840312156133cb57600080fd5b60006133d9848285016131de565b91505092915050565b6000602082840312156133f457600080fd5b600082015167ffffffffffffffff81111561340e57600080fd5b61341a848285016131f3565b91505092915050565b60006020828403121561343557600080fd5b600061344384828501613276565b91505092915050565b60006020828403121561345e57600080fd5b600061346c8482850161328b565b91505092915050565b6000610100828403121561348857600080fd5b6000613496848285016132a0565b91505092915050565b6000602082840312156134b157600080fd5b60006134bf84828501613366565b91505092915050565b6000602082840312156134da57600080fd5b60006134e88482850161337b565b91505092915050565b60006134fd8383613518565b60208301905092915050565b61351281613f67565b82525050565b61352181613f0d565b82525050565b61353081613f0d565b82525050565b600061354182613eb2565b61354b8185613ee0565b935061355683613ea2565b8060005b8381101561358757815161356e88826134f1565b975061357983613ed3565b92505060018101905061355a565b5085935050505092915050565b61359d81613f1f565b82525050565b60006135ae82613ebd565b6135b88185613ef1565b93506135c881856020860161402d565b80840191505092915050565b6135dd81613f79565b82525050565b6135ec81613f9d565b82525050565b6135fb81613fc1565b82525050565b61360a81613fe5565b82525050565b600061361b82613ec8565b6136258185613efc565b935061363581856020860161402d565b61363e81614060565b840191505092915050565b6000613656600b83613efc565b91507f21737472617465676973740000000000000000000000000000000000000000006000830152602082019050919050565b6000613696600583613efc565b91507f2177616e740000000000000000000000000000000000000000000000000000006000830152602082019050919050565b60006136d6601b83613efc565b91507f536166654d6174683a206164646974696f6e206f766572666c6f7700000000006000830152602082019050919050565b6000613716601e83613efc565b91507f536166654d6174683a207375627472616374696f6e206f766572666c6f7700006000830152602082019050919050565b6000613756602683613efc565b91507f416464726573733a20696e73756666696369656e742062616c616e636520666f60008301527f722063616c6c00000000000000000000000000000000000000000000000000006020830152604082019050919050565b60006137bc601a83613efc565b91507f536166654d6174683a206469766973696f6e206279207a65726f0000000000006000830152602082019050919050565b60006137fc602183613efc565b91507f536166654d6174683a206d756c7469706c69636174696f6e206f766572666c6f60008301527f77000000000000000000000000000000000000000000000000000000000000006020830152604082019050919050565b6000613862600683613efc565b91507f217661756c7400000000000000000000000000000000000000000000000000006000830152602082019050919050565b60006138a2600783613efc565b91507f21736861726573000000000000000000000000000000000000000000000000006000830152602082019050919050565b60006138e2601d83613efc565b91507f416464726573733a2063616c6c20746f206e6f6e2d636f6e74726163740000006000830152602082019050919050565b6000613922600b83613efc565b91507f21617574686f72697a65640000000000000000000000000000000000000000006000830152602082019050919050565b6000613962602a83613efc565b91507f5361666545524332303a204552433230206f7065726174696f6e20646964206e60008301527f6f742073756363656564000000000000000000000000000000000000000000006020830152604082019050919050565b60006139c8600a83613efc565b91507f2170726f746563746564000000000000000000000000000000000000000000006000830152602082019050919050565b6000613a08603683613efc565b91507f5361666545524332303a20617070726f76652066726f6d206e6f6e2d7a65726f60008301527f20746f206e6f6e2d7a65726f20616c6c6f77616e6365000000000000000000006020830152604082019050919050565b613a6a81613f5d565b82525050565b6000613a7c82846135a3565b915081905092915050565b6000602082019050613a9c6000830184613527565b92915050565b6000604082019050613ab76000830185613509565b613ac46020830184613a61565b9392505050565b6000604082019050613ae06000830185613527565b613aed6020830184613527565b9392505050565b6000604082019050613b096000830185613527565b613b166020830184613a61565b9392505050565b6000602082019050613b326000830184613594565b92915050565b6000602082019050613b4d60008301846135d4565b92915050565b6000602082019050613b6860008301846135e3565b92915050565b6000602082019050613b8360008301846135f2565b92915050565b6000602082019050613b9e6000830184613601565b92915050565b60006020820190508181036000830152613bbe8184613610565b905092915050565b60006020820190508181036000830152613bdf81613649565b9050919050565b60006020820190508181036000830152613bff81613689565b9050919050565b60006020820190508181036000830152613c1f816136c9565b9050919050565b60006020820190508181036000830152613c3f81613709565b9050919050565b60006020820190508181036000830152613c5f81613749565b9050919050565b60006020820190508181036000830152613c7f816137af565b9050919050565b60006020820190508181036000830152613c9f816137ef565b9050919050565b60006020820190508181036000830152613cbf81613855565b9050919050565b60006020820190508181036000830152613cdf81613895565b9050919050565b60006020820190508181036000830152613cff816138d5565b9050919050565b60006020820190508181036000830152613d1f81613915565b9050919050565b60006020820190508181036000830152613d3f81613955565b9050919050565b60006020820190508181036000830152613d5f816139bb565b9050919050565b60006020820190508181036000830152613d7f816139fb565b9050919050565b6000602082019050613d9b6000830184613a61565b92915050565b6000604082019050613db66000830185613a61565b8181036020830152613dc88184613536565b90509392505050565b6000606082019050613de66000830186613a61565b613df36020830185613a61565b613e006040830184613a61565b949350505050565b6000608082019050613e1d6000830187613a61565b613e2a6020830186613a61565b613e376040830185613a61565b613e446060830184613a61565b95945050505050565b6000604051905081810181811067ffffffffffffffff82111715613e7057600080fd5b8060405250919050565b600067ffffffffffffffff821115613e9157600080fd5b602082029050602081019050919050565b6000819050602082019050919050565b600081519050919050565b600081519050919050565b600081519050919050565b6000602082019050919050565b600082825260208201905092915050565b600081905092915050565b600082825260208201905092915050565b6000613f1882613f3d565b9050919050565b60008115159050919050565b6000613f3682613f0d565b9050919050565b600073ffffffffffffffffffffffffffffffffffffffff82169050919050565b6000819050919050565b6000613f7282614009565b9050919050565b6000613f8482613f8b565b9050919050565b6000613f9682613f3d565b9050919050565b6000613fa882613faf565b9050919050565b6000613fba82613f3d565b9050919050565b6000613fcc82613fd3565b9050919050565b6000613fde82613f3d565b9050919050565b6000613ff082613ff7565b9050919050565b600061400282613f3d565b9050919050565b60006140148261401b565b9050919050565b600061402682613f3d565b9050919050565b60005b8381101561404b578082015181840152602081019050614030565b8381111561405a576000848401525b50505050565b6000601f19601f8301169050919050565b61407a81613f0d565b811461408557600080fd5b50565b61409181613f1f565b811461409c57600080fd5b50565b6140a881613f2b565b81146140b357600080fd5b50565b6140bf81613f5d565b81146140ca57600080fd5b5056fea2646970667358221220c3ae5cd876c114d068ba63534c8347bed8daa8305f40478b7319502c46744a7c64736f6c634300060c0033",
  "immutableReferences": {},
  "source": "// SPDX-License-Identifier: AGPL-3.0\n// Feel free to change the license, but this is what we use\n\n// Feel free to change this version of Solidity. We support >=0.6.0 <0.7.0;\npragma solidity 0.6.12;\npragma experimental ABIEncoderV2;\n\n// These are the core Yearn libraries\n\nimport '@yearnvaults/contracts/contracts/BaseStrategy.sol';\nimport '@openzeppelin/contracts/token/ERC20/SafeERC20.sol';\nimport './interfaces/IUniswapRouter.sol';\nimport './interfaces/ISampleProtocol.sol';\n\ncontract Strategy is BaseStrategy {\n  using SafeERC20 for IERC20;\n  using Address for address;\n  using SafeMath for uint256;\n\n  ISampleProtocol public sampleProtocol;\n  IERC20 public lpToken;\n  IUniswapRouter public uniswapRouter;\n  address public weth;\n\n  constructor(\n    address _vault,\n    address _protocol,\n    address _lpToken,\n    address _uniswapRouter,\n    address _weth\n  ) public BaseStrategy(_vault) {\n    sampleProtocol = ISampleProtocol(_protocol);\n    lpToken = IERC20(_lpToken);\n    uniswapRouter = IUniswapRouter(_uniswapRouter);\n    weth = _weth;\n\n    want.safeApprove(address(sampleProtocol), uint256(-1));\n    lpToken.safeApprove(address(this), uint256(-1));\n  }\n\n  function name() external view override returns (string memory) {\n    return 'StrategySampleProtocolToken';\n  }\n\n  function estimatedTotalAssets() public view override returns (uint256) {\n    uint256 lpBalance = lpToken.balanceOf(address(this));\n    return want.balanceOf(address(this)).add(sampleProtocol.calculateAccumulateFee(lpBalance));\n  }\n\n  function balanceOfWant() public view returns (uint256) {\n    return IERC20(want).balanceOf(address(this));\n  }\n\n  function ethToWant(uint256 _amtInWei) public view returns (uint256) {\n    if (_amtInWei == 0) {\n      return 0;\n    }\n    address[] memory path = new address[](2);\n    path[0] = address(weth);\n    path[1] = address(want);\n    uint256[] memory amounts = IUniswapRouter(uniswapRouter).getAmountsOut(_amtInWei, path);\n\n    return amounts[1];\n  }\n\n  function prepareReturn(uint256 _debtOutstanding)\n    internal\n    override\n    returns (\n      uint256 _profit,\n      uint256 _loss,\n      uint256 _debtPayment\n    )\n  {\n    _profit = 0;\n    _loss = 0;\n\n    uint256 totalDebt = vault.strategies(address(this)).totalDebt;\n    uint256 totalAsstes = estimatedTotalAssets();\n    uint256 wantBalance = balanceOfWant();\n\n    if (totalAsstes > totalDebt) {\n      _profit = totalAsstes.sub(totalDebt);\n    } else {\n      _loss = totalDebt.sub(totalAsstes);\n    }\n\n    //Profit from liquidity mining + _debtOutstanding(the amount that vault needs back from the strategy)\n    uint256 toFree = _debtOutstanding.add(_profit);\n\n    if (toFree > wantBalance) {\n      //`toFree` is greater than `want` balance, so we need to wihdraw some `want` from protocol\n      uint256 withdrawalAmount = toFree.sub(wantBalance);\n\n      //calculate how much LP token should send to protocol to withdraw desired `want`\n      uint256 totalLpTokens = lpToken.balanceOf(address(this));\n      uint256 desireLpToken = uint256(withdrawalAmount).mul(totalLpTokens).div(totalAsstes) + 1;\n\n      //Send Lp token to protocol and recieve back the want\n      sampleProtocol.removeLiquidity(desireLpToken);\n\n      uint256 newWantBalance = balanceOfWant();\n      uint256 freedAmountFromProtocol = newWantBalance.sub(wantBalance);\n\n      uint256 withdrawalLoss = toFree.sub(freedAmountFromProtocol);\n\n      if (withdrawalLoss < _profit) {\n        _profit = _profit.sub(withdrawalLoss);\n      } else {\n        _loss = _loss.add(withdrawalLoss.sub(_profit));\n        _profit = 0;\n      }\n    }\n\n    wantBalance = balanceOfWant();\n\n    if (_profit > wantBalance) {\n      _debtPayment = 0;\n    } else if (_debtOutstanding > 0 && _debtOutstanding.add(_profit) > wantBalance) {\n      _debtPayment = wantBalance.sub(_profit);\n    } else {\n      _debtPayment = _debtOutstanding;\n    }\n  }\n\n  function adjustPosition(uint256 _debtOutstanding) internal override {\n    uint256 wantBalance = balanceOfWant();\n    if (wantBalance > _debtOutstanding) {\n      uint256 excessWant = wantBalance.sub(_debtOutstanding);\n\n      sampleProtocol.provideLiquidity(excessWant);\n    }\n  }\n\n  function liquidatePosition(uint256 _amountNeeded)\n    internal\n    override\n    returns (uint256 _liquidatedAmount, uint256 _loss)\n  {\n    uint256 wantBalance = balanceOfWant();\n\n    if (_amountNeeded > wantBalance) {\n      _liquidatedAmount = wantBalance;\n      _loss = _amountNeeded.sub(wantBalance);\n    } else {\n      _liquidatedAmount = wantBalance.sub(_amountNeeded);\n      _loss = 0;\n    }\n  }\n\n  function prepareMigration(address _newStrategy) internal override {}\n\n  function protectedTokens() internal view override returns (address[] memory) {}\n}\n",
  "sourcePath": "/Applications/MAMP/htdocs/Solidity/yearn-strategy/contracts/Strategy.sol",
  "compiler": {
    "name": "solc",
    "version": "0.6.12+commit.27d51765.Emscripten.clang"
  },
  "schemaVersion": "3.3.2",
  "updatedAt": "2021-05-21T13:05:46.548Z",
  "devdoc": {
    "kind": "dev",
    "methods": {
      "apiVersion()": {
        "details": "The Strategy's version must match the Vault's `API_VERSION`.",
        "returns": {
          "_0": "A string which holds the current API version of this contract."
        }
      },
      "delegatedAssets()": {
        "details": "You can override this field to set it to a non-zero value if some of the assets of this  Strategy is somehow delegated inside another part of of Yearn's ecosystem e.g. another Vault.  Note that this value must be strictly less than or equal to the amount provided by  `estimatedTotalAssets()` below, as the TVL calc will be total assets minus delegated assets.",
        "returns": {
          "_0": "The amount of assets this strategy manages that should not be included in Yearn's Total Value  Locked (TVL) calculation across it's ecosystem."
        }
      },
      "estimatedTotalAssets()": {
        "details": "Care must be taken in using this function, since it relies on external  systems, which could be manipulated by the attacker to give an inflated  (or reduced) value produced by this function, based on current on-chain  conditions (e.g. this function is possible to influence through  flashloan attacks, oracle manipulations, or other DeFi attack  mechanisms).  It is up to governance to use this function to correctly order this  Strategy relative to its peers in the withdrawal queue to minimize  losses for the Vault based on sudden withdrawals. This value should be  higher than the total debt of the Strategy and higher than its expected  value to be \"safe\".",
        "returns": {
          "_0": "The estimated total assets in this Strategy."
        }
      },
      "harvest()": {
        "details": "When `harvest()` is called, the Strategy reports to the Vault (via  `vault.report()`), so in some cases `harvest()` must be called in order  to take in profits, to borrow newly available funds from the Vault, or  otherwise adjust its position. In other cases `harvest()` must be  called to report to the Vault on the Strategy's position, especially if  any losses have occurred."
      },
      "harvestTrigger(uint256)": {
        "details": "`callCost` must be priced in terms of `want`.  This call and `tendTrigger` should never return `true` at the  same time.  See `minReportDelay`, `profitFactor`, `debtThreshold` to adjust the  strategist-controlled parameters that will influence whether this call  returns `true` or not. These parameters will be used in conjunction  with the parameters reported to the Vault (see `params`) to determine  if calling `harvest()` is merited.  It is expected that an external system will check `harvestTrigger()`.  This could be a script run off a desktop or cloud bot (e.g.  https://github.com/iearn-finance/yearn-vaults/blob/master/scripts/keep.py),  or via an integration with the Keep3r network (e.g.  https://github.com/Macarse/GenericKeep3rV2/blob/master/contracts/keep3r/GenericKeep3rV2.sol).",
        "params": {
          "callCost": "The keeper's estimated cast cost to call `harvest()`."
        },
        "returns": {
          "_0": "`true` if `harvest()` should be called, `false` otherwise."
        }
      },
      "migrate(address)": {
        "details": "The new Strategy's Vault must be the same as this Strategy's Vault.",
        "params": {
          "_newStrategy": "The Strategy to migrate to."
        }
      },
      "name()": {
        "details": "You can use this field to manage the \"version\" of this Strategy, e.g.  `StrategySomethingOrOtherV1`. However, \"API Version\" is managed by  `apiVersion()` function above.",
        "returns": {
          "_0": "This Strategy's name."
        }
      },
      "setDebtThreshold(uint256)": {
        "params": {
          "_debtThreshold": "How big of a loss this Strategy may carry without being required to report to the Vault."
        }
      },
      "setEmergencyExit()": {
        "details": "See `vault.setEmergencyShutdown()` and `harvest()` for further details."
      },
      "setKeeper(address)": {
        "params": {
          "_keeper": "The new address to assign as `keeper`."
        }
      },
      "setMinReportDelay(uint256)": {
        "params": {
          "_delay": "The minimum number of blocks to wait between harvests."
        }
      },
      "setProfitFactor(uint256)": {
        "params": {
          "_profitFactor": "A ratio to multiply anticipated `harvest()` gas cost against."
        }
      },
      "setRewards(address)": {
        "params": {
          "_rewards": "The address to use for collecting rewards."
        }
      },
      "setStrategist(address)": {
        "params": {
          "_strategist": "The new address to assign as `strategist`."
        }
      },
      "sweep(address)": {
        "details": "Implement `protectedTokens()` to specify any additional tokens that  should be protected from sweeping in addition to `want`.",
        "params": {
          "_token": "The token to transfer out of this vault."
        }
      },
      "tendTrigger(uint256)": {
        "details": "`callCost` must be priced in terms of `want`.  This call and `harvestTrigger()` should never return `true` at the same  time.",
        "params": {
          "callCost": "The keeper's estimated cast cost to call `tend()`."
        },
        "returns": {
          "_0": "`true` if `tend()` should be called, `false` otherwise."
        }
      },
      "withdraw(uint256)": {
        "params": {
          "_amountNeeded": "How much `want` to withdraw."
        },
        "returns": {
          "_loss": "Any realized losses"
        }
      }
    },
    "version": 1
  },
  "userdoc": {
    "kind": "user",
    "methods": {
      "apiVersion()": {
        "notice": "Used to track which version of `StrategyAPI` this Strategy  implements."
      },
      "delegatedAssets()": {
        "notice": "The amount (priced in want) of the total assets managed by this strategy should not count  towards Yearn's TVL calculations."
      },
      "estimatedTotalAssets()": {
        "notice": "Provide an accurate estimate for the total amount of assets  (principle + return) that this Strategy is currently managing,  denominated in terms of `want` tokens.  This total should be \"realizable\" e.g. the total value that could  *actually* be obtained from this Strategy if it were to divest its  entire position based on current on-chain conditions."
      },
      "harvest()": {
        "notice": "Harvests the Strategy, recognizing any profits or losses and adjusting  the Strategy's position.  In the rare case the Strategy is in emergency shutdown, this will exit  the Strategy's position.  This may only be called by governance, the strategist, or the keeper."
      },
      "harvestTrigger(uint256)": {
        "notice": "Provide a signal to the keeper that `harvest()` should be called. The  keeper will provide the estimated gas cost that they would pay to call  `harvest()`, and this function should use that estimate to make a  determination if calling it is \"worth it\" for the keeper. This is not  the only consideration into issuing this trigger, for example if the  position would be negatively affected if `harvest()` is not called  shortly, then this can return `true` even if the keeper might be \"at a  loss\" (keepers are always reimbursed by Yearn)."
      },
      "migrate(address)": {
        "notice": "Transfers all `want` from this Strategy to `_newStrategy`.  This may only be called by governance or the Vault."
      },
      "name()": {
        "notice": "This Strategy's name."
      },
      "setDebtThreshold(uint256)": {
        "notice": "Sets how far the Strategy can go into loss without a harvest and report  being required.  By default this is 0, meaning any losses would cause a harvest which  will subsequently report the loss to the Vault for tracking. (See  `harvestTrigger()` for more details.)  This may only be called by governance or the strategist."
      },
      "setEmergencyExit()": {
        "notice": "Activates emergency exit. Once activated, the Strategy will exit its  position upon the next harvest, depositing all funds into the Vault as  quickly as is reasonable given on-chain conditions.  This may only be called by governance or the strategist."
      },
      "setKeeper(address)": {
        "notice": "Used to change `keeper`.  `keeper` is the only address that may call `tend()` or `harvest()`,  other than `governance()` or `strategist`. However, unlike  `governance()` or `strategist`, `keeper` may *only* call `tend()`  and `harvest()`, and no other authorized functions, following the  principle of least privilege.  This may only be called by governance or the strategist."
      },
      "setMinReportDelay(uint256)": {
        "notice": "Used to change `minReportDelay`. `minReportDelay` is the minimum number  of blocks that should pass before `harvest()` is called.  For external keepers (such as the Keep3r network), this is the minimum  time between jobs, to prevent excessive costs. (see `harvestTrigger()`  for more details.)  This may only be called by governance or the strategist."
      },
      "setProfitFactor(uint256)": {
        "notice": "Used to change `profitFactor`. `profitFactor` is used to determine  if it's worthwhile to harvest, given gas costs. (See `harvestTrigger()`  for more details.)  This may only be called by governance or the strategist."
      },
      "setRewards(address)": {
        "notice": "Used to change `rewards`. Any distributed rewards will cease flowing  to the old address and begin flowing to this address once the change  is in effect.  This will not change any Strategy reports in progress, only  new reports made after this change goes into effect.  This may only be called by the strategist."
      },
      "setStrategist(address)": {
        "notice": "Used to change `strategist`.  This may only be called by governance or the existing strategist."
      },
      "sweep(address)": {
        "notice": "Removes tokens from this Strategy that are not the type of tokens  managed by this Strategy. This may be used in case of accidentally  sending the wrong kind of token to this Strategy.  Tokens will be sent to `governance()`.  This will fail if an attempt is made to sweep `want`, or any tokens  that are protected by this Strategy.  This may only be called by governance."
      },
      "tend()": {
        "notice": "Adjust the Strategy's position. The purpose of tending isn't to  realize gains, but to maximize yield by reinvesting any returns.  See comments on `adjustPosition()`.  This may only be called by governance, the strategist, or the keeper."
      },
      "tendTrigger(uint256)": {
        "notice": "Provide a signal to the keeper that `tend()` should be called. The  keeper will provide the estimated gas cost that they would pay to call  `tend()`, and this function should use that estimate to make a  determination if calling it is \"worth it\" for the keeper. This is not  the only consideration into issuing this trigger, for example if the  position would be negatively affected if `tend()` is not called  shortly, then this can return `true` even if the keeper might be  \"at a loss\" (keepers are always reimbursed by Yearn)."
      },
      "withdraw(uint256)": {
        "notice": "Withdraws `_amountNeeded` to `vault`.  This may only be called by the Vault."
      }
    },
    "version": 1
  }
}